{
  "contractName": "Crowdfunding",
  "abi": [
    {
      "inputs": [],
      "stateMutability": "nonpayable",
      "type": "constructor"
    },
    {
      "inputs": [],
      "name": "author",
      "outputs": [
        {
          "internalType": "address",
          "name": "",
          "type": "address"
        }
      ],
      "stateMutability": "view",
      "type": "function",
      "constant": true
    },
    {
      "inputs": [],
      "name": "closed",
      "outputs": [
        {
          "internalType": "bool",
          "name": "",
          "type": "bool"
        }
      ],
      "stateMutability": "view",
      "type": "function",
      "constant": true
    },
    {
      "inputs": [],
      "name": "endTime",
      "outputs": [
        {
          "internalType": "uint256",
          "name": "",
          "type": "uint256"
        }
      ],
      "stateMutability": "view",
      "type": "function",
      "constant": true
    },
    {
      "inputs": [
        {
          "internalType": "address",
          "name": "",
          "type": "address"
        }
      ],
      "name": "joined",
      "outputs": [
        {
          "internalType": "uint256",
          "name": "",
          "type": "uint256"
        }
      ],
      "stateMutability": "view",
      "type": "function",
      "constant": true
    },
    {
      "inputs": [],
      "name": "price",
      "outputs": [
        {
          "internalType": "uint256",
          "name": "",
          "type": "uint256"
        }
      ],
      "stateMutability": "view",
      "type": "function",
      "constant": true
    },
    {
      "stateMutability": "payable",
      "type": "receive",
      "payable": true
    },
    {
      "inputs": [],
      "name": "withdrawFund",
      "outputs": [],
      "stateMutability": "payable",
      "type": "function",
      "payable": true
    },
    {
      "inputs": [],
      "name": "withdraw",
      "outputs": [],
      "stateMutability": "payable",
      "type": "function",
      "payable": true
    }
  ],
  "bytecode": "0x608060405266470de4df8200006003556000600460006101000a81548160ff02191690831515021790555034801561003657600080fd5b50336000806101000a81548173ffffffffffffffffffffffffffffffffffffffff021916908373ffffffffffffffffffffffffffffffffffffffff16021790555062278d004261008691906100ca565b600281905550610120565b6000819050919050565b7f4e487b7100000000000000000000000000000000000000000000000000000000600052601160045260246000fd5b60006100d582610091565b91506100e083610091565b9250827fffffffffffffffffffffffffffffffffffffffffffffffffffffffffffffffff038211156101155761011461009b565b5b828201905092915050565b610cad8061012f6000396000f3fe6080604052600436106100745760003560e01c8063a035b1fe1161004e578063a035b1fe14610250578063a6c3e6b91461027b578063e07fa3c1146102a6578063f887d019146102b0576101eb565b80633197cbb6146101f05780633ccfd60b1461021b578063597e1fb514610225576101eb565b366101eb57600254421080156100975750600460009054906101000a900460ff16155b6100d6576040517f08c379a00000000000000000000000000000000000000000000000000000000081526004016100cd9061068e565b60405180910390fd5b6000600160003373ffffffffffffffffffffffffffffffffffffffff1673ffffffffffffffffffffffffffffffffffffffff1681526020019081526020016000205414610158576040517f08c379a000000000000000000000000000000000000000000000000000000000815260040161014f90610720565b60405180910390fd5b60035434101561019d576040517f08c379a00000000000000000000000000000000000000000000000000000000081526004016101949061078c565b60405180910390fd5b34600160003373ffffffffffffffffffffffffffffffffffffffff1673ffffffffffffffffffffffffffffffffffffffff168152602001908152602001600020819055506101e96102ed565b005b600080fd5b3480156101fc57600080fd5b50610205610333565b60405161021291906107c5565b60405180910390f35b610223610339565b005b34801561023157600080fd5b5061023a61049f565b60405161024791906107fb565b60405180910390f35b34801561025c57600080fd5b506102656104b2565b60405161027291906107c5565b60405180910390f35b34801561028757600080fd5b506102906104b8565b60405161029d9190610857565b60405180910390f35b6102ae6104dc565b005b3480156102bc57600080fd5b506102d760048036038101906102d291906108a3565b610619565b6040516102e491906107c5565b60405180910390f35b600066071afd498d0000670de0b6b3a76400004761030b919061092e565b610315919061095f565b90508066470de4df82000061032a91906109b9565b60038190555050565b60025481565b600254421161037d576040517f08c379a000000000000000000000000000000000000000000000000000000000815260040161037490610a5b565b60405180910390fd5b600460009054906101000a900460ff16156103cd576040517f08c379a00000000000000000000000000000000000000000000000000000000081526004016103c490610aed565b60405180910390fd5b47678ac7230489e8000011610417576040517f08c379a000000000000000000000000000000000000000000000000000000000815260040161040e90610b7f565b60405180910390fd5b3373ffffffffffffffffffffffffffffffffffffffff166108fc600160003373ffffffffffffffffffffffffffffffffffffffff1673ffffffffffffffffffffffffffffffffffffffff168152602001908152602001600020549081150290604051600060405180830381858888f1935050505015801561049c573d6000803e3d6000fd5b50565b600460009054906101000a900460ff1681565b60035481565b60008054906101000a900473ffffffffffffffffffffffffffffffffffffffff1681565b60008054906101000a900473ffffffffffffffffffffffffffffffffffffffff1673ffffffffffffffffffffffffffffffffffffffff163373ffffffffffffffffffffffffffffffffffffffff161461056a576040517f08c379a000000000000000000000000000000000000000000000000000000000815260040161056190610beb565b60405180910390fd5b678ac7230489e800004710156105b5576040517f08c379a00000000000000000000000000000000000000000000000000000000081526004016105ac90610c57565b60405180910390fd5b6001600460006101000a81548160ff0219169083151502179055503373ffffffffffffffffffffffffffffffffffffffff166108fc479081150290604051600060405180830381858888f19350505050158015610616573d6000803e3d6000fd5b50565b60016020528060005260406000206000915090505481565b600082825260208201905092915050565b7f43726f776466756e64696e67206973206f766572210000000000000000000000600082015250565b6000610678601583610631565b915061068382610642565b602082019050919050565b600060208201905081810360008301526106a78161066b565b9050919050565b7f596f7520686176652070617274696369706174656420696e2063726f7764667560008201527f6e64696e67210000000000000000000000000000000000000000000000000000602082015250565b600061070a602683610631565b9150610715826106ae565b604082019050919050565b60006020820190508181036000830152610739816106fd565b9050919050565b7f596f752073686f756c64206f6666657220612068696768657220707269636521600082015250565b6000610776602083610631565b915061078182610740565b602082019050919050565b600060208201905081810360008301526107a581610769565b9050919050565b6000819050919050565b6107bf816107ac565b82525050565b60006020820190506107da60008301846107b6565b92915050565b60008115159050919050565b6107f5816107e0565b82525050565b600060208201905061081060008301846107ec565b92915050565b600073ffffffffffffffffffffffffffffffffffffffff82169050919050565b600061084182610816565b9050919050565b61085181610836565b82525050565b600060208201905061086c6000830184610848565b92915050565b600080fd5b61088081610836565b811461088b57600080fd5b50565b60008135905061089d81610877565b92915050565b6000602082840312156108b9576108b8610872565b5b60006108c78482850161088e565b91505092915050565b7f4e487b7100000000000000000000000000000000000000000000000000000000600052601260045260246000fd5b7f4e487b7100000000000000000000000000000000000000000000000000000000600052601160045260246000fd5b6000610939826107ac565b9150610944836107ac565b925082610954576109536108d0565b5b828204905092915050565b600061096a826107ac565b9150610975836107ac565b9250817fffffffffffffffffffffffffffffffffffffffffffffffffffffffffffffffff04831182151516156109ae576109ad6108ff565b5b828202905092915050565b60006109c4826107ac565b91506109cf836107ac565b9250827fffffffffffffffffffffffffffffffffffffffffffffffffffffffffffffffff03821115610a0457610a036108ff565b5b828201905092915050565b7f43726f7764696e6766756e64696e672069732067657474696e67206f6e210000600082015250565b6000610a45601e83610631565b9150610a5082610a0f565b602082019050919050565b60006020820190508181036000830152610a7481610a38565b9050919050565b7f476f616c20616368696576656420616e642046756e647320776974686472617760008201527f6e2e000000000000000000000000000000000000000000000000000000000000602082015250565b6000610ad7602283610631565b9150610ae282610a7b565b604082019050919050565b60006020820190508181036000830152610b0681610aca565b9050919050565b7f476f616c2061636869657665642e596f75722066756e642063616e6e6f74206260008201527f652077697468647261776e000000000000000000000000000000000000000000602082015250565b6000610b69602b83610631565b9150610b7482610b0d565b604082019050919050565b60006020820190508181036000830152610b9881610b5c565b9050919050565b7f596f7520617265206e6f742074686520617574686f7221000000000000000000600082015250565b6000610bd5601783610631565b9150610be082610b9f565b602082019050919050565b60006020820190508181036000830152610c0481610bc8565b9050919050565b7f4e6f7420616368696576652074686520676f616c210000000000000000000000600082015250565b6000610c41601583610631565b9150610c4c82610c0b565b602082019050919050565b60006020820190508181036000830152610c7081610c34565b905091905056fea2646970667358221220caa210630eb2bddb78f3a7f1df0e9c9849d0b40a4bf2645908db1bdeef0d94a564736f6c634300080f0033",
  "immutableReferences": {},
  "source": "pragma solidity >=0.8.0 <0.9.0;\r\ncontract Crowdfunding {\r\n    // \r\n    address public author;\r\n    // \r\n    mapping(address => uint) public joined;\r\n    // \r\n    uint constant Target = 10 ether;\r\n    // \r\n    uint public endTime;\r\n    // \r\n    uint public price = 0.02 ether;\r\n    // \r\n    bool public closed = false;\r\n    // \r\n    constructor() public {\r\n        author = msg.sender;\r\n        endTime = block.timestamp + 30 days;\r\n    }\r\n    // \r\n    function updatePrice() internal {\r\n        uint rise = address(this).balance / 1 ether * 0.002 ether;\r\n        price = 0.02 ether + rise;\r\n    }\r\n    // \r\n    receive() external payable {\r\n        require(block.timestamp < endTime && !closed, \"Crowdfunding is over!\");\r\n        require(joined[msg.sender] == 0, \"You have participated in crowdfunding!\");\r\n        require(msg.value >= price, \"You should offer a higher price!\");\r\n        joined[msg.sender] = msg.value;\r\n        updatePrice();\r\n    }\r\n    // \r\n    function withdrawFund() external payable {\r\n        require(msg.sender == author, \"You are not the author!\");\r\n        require(address(this).balance >= Target, \"Not achieve the goal!\");\r\n        closed = true;\r\n        // msg.sender\r\n        payable(msg.sender).transfer(address(this).balance);\r\n    }\r\n    // \r\n    function withdraw() external payable {\r\n        require(block.timestamp > endTime, \"Crowdingfunding is getting on!\");\r\n        require(!closed, \"Goal achieved and Funds withdrawn.\");\r\n        require(Target > address(this).balance, \"Goal achieved.Your fund cannot be withdrawn\");\r\n        payable(msg.sender).transfer(joined[msg.sender]);\r\n    }\r\n}",
  "sourcePath": "E:\\Source\\cic\\Dapp\\truffle\\contracts\\Crowdfunding.sol",
  "compiler": {
    "name": "solc",
    "version": "0.8.15+commit.e14f2714.Emscripten.clang"
  },
  "schemaVersion": "3.4.8",
  "updatedAt": "2022-07-15T16:01:32.548Z",
  "networkType": "ethereum",
  "devdoc": {
    "kind": "dev",
    "methods": {},
    "version": 1
  },
  "userdoc": {
    "kind": "user",
    "methods": {},
    "version": 1
  }
}