{
  "contractName": "Crowdfunding",
  "abi": [
    {
      "inputs": [],
      "stateMutability": "nonpayable",
      "type": "constructor"
    },
    {
      "inputs": [],
      "name": "Target",
      "outputs": [
        {
          "internalType": "uint256",
          "name": "",
          "type": "uint256"
        }
      ],
      "stateMutability": "view",
      "type": "function",
      "constant": true
    },
    {
      "inputs": [],
      "name": "author",
      "outputs": [
        {
          "internalType": "address",
          "name": "",
          "type": "address"
        }
      ],
      "stateMutability": "view",
      "type": "function",
      "constant": true
    },
    {
      "inputs": [],
      "name": "closed",
      "outputs": [
        {
          "internalType": "bool",
          "name": "",
          "type": "bool"
        }
      ],
      "stateMutability": "view",
      "type": "function",
      "constant": true
    },
    {
      "inputs": [],
      "name": "endTime",
      "outputs": [
        {
          "internalType": "uint256",
          "name": "",
          "type": "uint256"
        }
      ],
      "stateMutability": "view",
      "type": "function",
      "constant": true
    },
    {
      "inputs": [
        {
          "internalType": "address",
          "name": "",
          "type": "address"
        }
      ],
      "name": "joined",
      "outputs": [
        {
          "internalType": "uint256",
          "name": "",
          "type": "uint256"
        }
      ],
      "stateMutability": "view",
      "type": "function",
      "constant": true
    },
    {
      "inputs": [],
      "name": "price",
      "outputs": [
        {
          "internalType": "uint256",
          "name": "",
          "type": "uint256"
        }
      ],
      "stateMutability": "view",
      "type": "function",
      "constant": true
    },
    {
      "stateMutability": "payable",
      "type": "receive",
      "payable": true
    },
    {
      "inputs": [],
      "name": "withdrawFund",
      "outputs": [],
      "stateMutability": "payable",
      "type": "function",
      "payable": true
    },
    {
      "inputs": [],
      "name": "withdraw",
      "outputs": [],
      "stateMutability": "payable",
      "type": "function",
      "payable": true
    }
  ],
  "bytecode": "0x6080604052674563918244f400006004556000600560006101000a81548160ff02191690831515021790555034801561003757600080fd5b50336000806101000a81548173ffffffffffffffffffffffffffffffffffffffff021916908373ffffffffffffffffffffffffffffffffffffffff16021790555061012c4261008691906100d9565b600381905550678ac7230489e8000060028190555061012f565b6000819050919050565b7f4e487b7100000000000000000000000000000000000000000000000000000000600052601160045260246000fd5b60006100e4826100a0565b91506100ef836100a0565b9250827fffffffffffffffffffffffffffffffffffffffffffffffffffffffffffffffff03821115610124576101236100aa565b5b828201905092915050565b610b4f8061013e6000396000f3fe60806040526004361061007f5760003560e01c8063a035b1fe1161004e578063a035b1fe1461027d578063a6c3e6b9146102a8578063e07fa3c1146102d3578063f887d019146102dd576101ed565b80633197cbb6146101f25780633ccfd60b1461021d5780634fe6f55f14610227578063597e1fb514610252576101ed565b366101ed57600354421080156100a25750600560009054906101000a900460ff16155b6100e1576040517f08c379a00000000000000000000000000000000000000000000000000000000081526004016100d89061066f565b60405180910390fd5b6000600160003373ffffffffffffffffffffffffffffffffffffffff1673ffffffffffffffffffffffffffffffffffffffff1681526020019081526020016000205414610163576040517f08c379a000000000000000000000000000000000000000000000000000000000815260040161015a90610701565b60405180910390fd5b6004543410156101a8576040517f08c379a000000000000000000000000000000000000000000000000000000000815260040161019f9061076d565b60405180910390fd5b34600160003373ffffffffffffffffffffffffffffffffffffffff1673ffffffffffffffffffffffffffffffffffffffff168152602001908152602001600020819055005b600080fd5b3480156101fe57600080fd5b5061020761031a565b60405161021491906107a6565b60405180910390f35b610225610320565b005b34801561023357600080fd5b5061023c610480565b60405161024991906107a6565b60405180910390f35b34801561025e57600080fd5b50610267610486565b60405161027491906107dc565b60405180910390f35b34801561028957600080fd5b50610292610499565b60405161029f91906107a6565b60405180910390f35b3480156102b457600080fd5b506102bd61049f565b6040516102ca9190610838565b60405180910390f35b6102db6104c3565b005b3480156102e957600080fd5b5061030460048036038101906102ff9190610884565b6105fa565b60405161031191906107a6565b60405180910390f35b60035481565b6003544211610364576040517f08c379a000000000000000000000000000000000000000000000000000000000815260040161035b906108fd565b60405180910390fd5b600560009054906101000a900460ff16156103b4576040517f08c379a00000000000000000000000000000000000000000000000000000000081526004016103ab9061098f565b60405180910390fd5b47600254116103f8576040517f08c379a00000000000000000000000000000000000000000000000000000000081526004016103ef90610a21565b60405180910390fd5b3373ffffffffffffffffffffffffffffffffffffffff166108fc600160003373ffffffffffffffffffffffffffffffffffffffff1673ffffffffffffffffffffffffffffffffffffffff168152602001908152602001600020549081150290604051600060405180830381858888f1935050505015801561047d573d6000803e3d6000fd5b50565b60025481565b600560009054906101000a900460ff1681565b60045481565b60008054906101000a900473ffffffffffffffffffffffffffffffffffffffff1681565b60008054906101000a900473ffffffffffffffffffffffffffffffffffffffff1673ffffffffffffffffffffffffffffffffffffffff163373ffffffffffffffffffffffffffffffffffffffff1614610551576040517f08c379a000000000000000000000000000000000000000000000000000000000815260040161054890610a8d565b60405180910390fd5b600254471015610596576040517f08c379a000000000000000000000000000000000000000000000000000000000815260040161058d90610af9565b60405180910390fd5b6001600560006101000a81548160ff0219169083151502179055503373ffffffffffffffffffffffffffffffffffffffff166108fc479081150290604051600060405180830381858888f193505050501580156105f7573d6000803e3d6000fd5b50565b60016020528060005260406000206000915090505481565b600082825260208201905092915050565b7f43726f776466756e64696e67206973206f766572210000000000000000000000600082015250565b6000610659601583610612565b915061066482610623565b602082019050919050565b600060208201905081810360008301526106888161064c565b9050919050565b7f596f7520686176652070617274696369706174656420696e2063726f7764667560008201527f6e64696e67210000000000000000000000000000000000000000000000000000602082015250565b60006106eb602683610612565b91506106f68261068f565b604082019050919050565b6000602082019050818103600083015261071a816106de565b9050919050565b7f596f752073686f756c64206f6666657220612068696768657220707269636521600082015250565b6000610757602083610612565b915061076282610721565b602082019050919050565b600060208201905081810360008301526107868161074a565b9050919050565b6000819050919050565b6107a08161078d565b82525050565b60006020820190506107bb6000830184610797565b92915050565b60008115159050919050565b6107d6816107c1565b82525050565b60006020820190506107f160008301846107cd565b92915050565b600073ffffffffffffffffffffffffffffffffffffffff82169050919050565b6000610822826107f7565b9050919050565b61083281610817565b82525050565b600060208201905061084d6000830184610829565b92915050565b600080fd5b61086181610817565b811461086c57600080fd5b50565b60008135905061087e81610858565b92915050565b60006020828403121561089a57610899610853565b5b60006108a88482850161086f565b91505092915050565b7f43726f7764696e6766756e64696e672069732067657474696e67206f6e210000600082015250565b60006108e7601e83610612565b91506108f2826108b1565b602082019050919050565b60006020820190508181036000830152610916816108da565b9050919050565b7f476f616c20616368696576656420616e642066756e647320776974686472617760008201527f6e2e000000000000000000000000000000000000000000000000000000000000602082015250565b6000610979602283610612565b91506109848261091d565b604082019050919050565b600060208201905081810360008301526109a88161096c565b9050919050565b7f476f616c2061636869657665642e596f75722066756e642063616e6e6f74206260008201527f652077697468647261776e000000000000000000000000000000000000000000602082015250565b6000610a0b602b83610612565b9150610a16826109af565b604082019050919050565b60006020820190508181036000830152610a3a816109fe565b9050919050565b7f596f7520617265206e6f742074686520617574686f7221000000000000000000600082015250565b6000610a77601783610612565b9150610a8282610a41565b602082019050919050565b60006020820190508181036000830152610aa681610a6a565b9050919050565b7f4e6f7420616368696576652074686520676f616c210000000000000000000000600082015250565b6000610ae3601583610612565b9150610aee82610aad565b602082019050919050565b60006020820190508181036000830152610b1281610ad6565b905091905056fea2646970667358221220d27f5e5cc35b090d948893d95530d70e6e57404b5b8f7efe846d81ea3fdb45b464736f6c634300080f0033",
  "immutableReferences": {},
  "source": "pragma solidity >=0.8.0 <0.9.0;\r\ncontract Crowdfunding {\r\n    // \r\n    address public author;\r\n    // \r\n    mapping(address => uint) public joined;\r\n    // \r\n    uint public Target;\r\n    // \r\n    uint public endTime;\r\n    // \r\n    uint public price = 5 ether;\r\n    // \r\n    bool public closed = false;\r\n    // \r\n    constructor() public {\r\n        author = msg.sender;\r\n        endTime = block.timestamp + 5 minutes;\r\n        Target = 10 ether;\r\n    }\r\n    // \r\n    function updatePrice() internal {\r\n        uint rise = address(this).balance / 1 ether * 0.002 ether;\r\n        price = 0.02 ether + rise;\r\n    }\r\n    // \r\n    receive() external payable {\r\n        require(block.timestamp < endTime && !closed, \"Crowdfunding is over!\");\r\n        require(joined[msg.sender] == 0, \"You have participated in crowdfunding!\");\r\n        require(msg.value >= price, \"You should offer a higher price!\");\r\n        joined[msg.sender] = msg.value;\r\n        //updatePrice();\r\n    }\r\n    // \r\n    function withdrawFund() external payable {\r\n        require(msg.sender == author, \"You are not the author!\");\r\n        require(address(this).balance >= Target, \"Not achieve the goal!\");\r\n        closed = true;\r\n        // msg.sender\r\n        payable(msg.sender).transfer(address(this).balance);\r\n    }\r\n    // \r\n    function withdraw() external payable {\r\n        require(block.timestamp > endTime, \"Crowdingfunding is getting on!\");\r\n        require(!closed, \"Goal achieved and funds withdrawn.\");\r\n        require(Target > address(this).balance, \"Goal achieved.Your fund cannot be withdrawn\");\r\n        payable(msg.sender).transfer(joined[msg.sender]);\r\n    }\r\n}",
  "sourcePath": "E:\\Source\\cic\\Dapp\\truffle\\contracts\\Crowdfunding.sol",
  "compiler": {
    "name": "solc",
    "version": "0.8.15+commit.e14f2714.Emscripten.clang"
  },
  "schemaVersion": "3.4.8",
  "updatedAt": "2022-07-18T07:04:40.091Z",
  "networkType": "ethereum",
  "devdoc": {
    "kind": "dev",
    "methods": {},
    "version": 1
  },
  "userdoc": {
    "kind": "user",
    "methods": {},
    "version": 1
  }
}